{
  "transactions": [
    {
      "hash": "0x45546e7d5e536c8b5a32eba7449fe8afb4045b819d8da339701aaa2008823f90",
      "transactionType": "CALL",
      "contractName": null,
      "contractAddress": "0x85921efceb86a3fe62671504d102da2a842592ef",
      "function": "mintNFT(string)",
      "arguments": [
        "ipfs://QmatuGJVfpyPxTnYxrazFbUnKfxuGjYQh589a3WCQW1Q1U"
      ],
      "transaction": {
        "from": "0xffd4ec9948aeb1e78390d71756870c1f7ea22f1f",
        "to": "0x85921efceb86a3fe62671504d102da2a842592ef",
        "gas": "0x2a2f4",
        "value": "0x0",
        "input": "0xfb37e88300000000000000000000000000000000000000000000000000000000000000200000000000000000000000000000000000000000000000000000000000000035697066733a2f2f516d617475474a566670795078546e597872617a4662556e4b667875476a595168353839613357435157315131550000000000000000000000",
        "nonce": "0x45",
        "chainId": "0xaa36a7"
      },
      "additionalContracts": [],
      "isFixedGasLimit": false
    }
  ],
  "receipts": [
    {
      "status": "0x1",
      "cumulativeGasUsed": "0xaaa5ea",
      "logs": [
        {
          "address": "0x85921efceb86a3fe62671504d102da2a842592ef",
          "topics": [
            "0xddf252ad1be2c89b69c2b068fc378daa952ba7f163c4a11628f55a4df523b3ef",
            "0x0000000000000000000000000000000000000000000000000000000000000000",
            "0x000000000000000000000000ffd4ec9948aeb1e78390d71756870c1f7ea22f1f",
            "0x0000000000000000000000000000000000000000000000000000000000000001"
          ],
          "data": "0x",
          "blockHash": "0x8d2410438d12b33d83f673d484c774c8d522cc84bd801fea45de139a84ad63bf",
          "blockNumber": "0x6d8e41",
          "transactionHash": "0x45546e7d5e536c8b5a32eba7449fe8afb4045b819d8da339701aaa2008823f90",
          "transactionIndex": "0x12b",
          "logIndex": "0x1e",
          "removed": false
        }
      ],
      "logsBloom": "0x00000000000000000000000000000000000000000000000000000000000000000000000000000020000000000000000000000000000000000000000000040000000000000000000000000008000000008000000000040000000000000000000000000020020000000000000000000800000000000000000000000010000000000000000000000000020000000000000000000000000000000000000000000000020000000000000000000000000000000000000000000000000000000000000000000002000000000000000000000000000000000000000000000000040060000000000000000000000000000000000000000000000000000000000000000000",
      "type": "0x2",
      "transactionHash": "0x45546e7d5e536c8b5a32eba7449fe8afb4045b819d8da339701aaa2008823f90",
      "transactionIndex": "0x12b",
      "blockHash": "0x8d2410438d12b33d83f673d484c774c8d522cc84bd801fea45de139a84ad63bf",
      "blockNumber": "0x6d8e41",
      "gasUsed": "0x1e8a8",
      "effectiveGasPrice": "0x3b804145",
      "from": "0xffd4ec9948aeb1e78390d71756870c1f7ea22f1f",
      "to": "0x85921efceb86a3fe62671504d102da2a842592ef",
      "contractAddress": null
    }
  ],
  "libraries": [],
  "pending": [],
  "returns": {},
  "timestamp": 1732923277,
  "chain": 11155111,
  "commit": "4df8b97"
}