{
  "transactions": [
    {
      "hash": "0x47acef1bf9d8a137277b31995ab6c95d0de5bee0a1429d7d0cb3e70da0f2aef2",
      "transactionType": "CALL",
      "contractName": null,
      "contractAddress": "0x85921efceb86a3fe62671504d102da2a842592ef",
      "function": "mintNFT(string)",
      "arguments": [
        "https://ipfs.io/ipfs/QmW6aDHtYAprDkqbeC4pXZQz1Gp4iqj1rwp53SMoGkK2dr"
      ],
      "transaction": {
        "from": "0xffd4ec9948aeb1e78390d71756870c1f7ea22f1f",
        "to": "0x85921efceb86a3fe62671504d102da2a842592ef",
        "gas": "0x3d4cf",
        "value": "0x0",
        "input": "0xfb37e8830000000000000000000000000000000000000000000000000000000000000020000000000000000000000000000000000000000000000000000000000000004368747470733a2f2f697066732e696f2f697066732f516d57366144487459417072446b716265433470585a517a3147703469716a317277703533534d6f476b4b3264720000000000000000000000000000000000000000000000000000000000",
        "nonce": "0x44",
        "chainId": "0xaa36a7"
      },
      "additionalContracts": [],
      "isFixedGasLimit": false
    }
  ],
  "receipts": [
    {
      "status": "0x1",
      "cumulativeGasUsed": "0x958e0e",
      "logs": [
        {
          "address": "0x85921efceb86a3fe62671504d102da2a842592ef",
          "topics": [
            "0xddf252ad1be2c89b69c2b068fc378daa952ba7f163c4a11628f55a4df523b3ef",
            "0x0000000000000000000000000000000000000000000000000000000000000000",
            "0x000000000000000000000000ffd4ec9948aeb1e78390d71756870c1f7ea22f1f",
            "0x0000000000000000000000000000000000000000000000000000000000000000"
          ],
          "data": "0x",
          "blockHash": "0x1a95878dd55c5584e4aa04da18d6ea8f8713790b8066caf26c82439639266952",
          "blockNumber": "0x6d8e28",
          "transactionHash": "0x47acef1bf9d8a137277b31995ab6c95d0de5bee0a1429d7d0cb3e70da0f2aef2",
          "transactionIndex": "0x105",
          "logIndex": "0x34",
          "removed": false
        }
      ],
      "logsBloom": "0x00000000000000000000000000000000000000000000000000000000000000000000000000000020000000000000000000000000000000000000000000000000000000000000000000000008000000008000000000000000000000000000000000000020020000000000000000000800000000000000000000000010000000000000000000000000020000000000000000000000000000000000000000000000020000000000000000000000000000000000000000000000000000000000000000000002000000000000000000000000000000000000000000000000040020000000000000000000000000000000000000000000000000000000000000000000",
      "type": "0x2",
      "transactionHash": "0x47acef1bf9d8a137277b31995ab6c95d0de5bee0a1429d7d0cb3e70da0f2aef2",
      "transactionIndex": "0x105",
      "blockHash": "0x1a95878dd55c5584e4aa04da18d6ea8f8713790b8066caf26c82439639266952",
      "blockNumber": "0x6d8e28",
      "gasUsed": "0x2c617",
      "effectiveGasPrice": "0x39e6b5a8",
      "from": "0xffd4ec9948aeb1e78390d71756870c1f7ea22f1f",
      "to": "0x85921efceb86a3fe62671504d102da2a842592ef",
      "contractAddress": null
    }
  ],
  "libraries": [],
  "pending": [],
  "returns": {},
  "timestamp": 1732922917,
  "chain": 11155111,
  "commit": "4df8b97"
}